{"contracts/src/Sandooo.sol":{"Sandooo":{"abi":[{"inputs":[],"stateMutability":"nonpayable","type":"constructor"},{"stateMutability":"payable","type":"fallback"},{"inputs":[],"name":"owner","outputs":[{"internalType":"address","name":"","type":"address"}],"stateMutability":"view","type":"function"},{"inputs":[{"internalType":"address","name":"token","type":"address"},{"internalType":"uint256","name":"amount","type":"uint256"}],"name":"recoverToken","outputs":[],"stateMutability":"nonpayable","type":"function"},{"stateMutability":"payable","type":"receive"}],"evm":{"bytecode":{"linkReferences":{},"object":"608060405234801561001057600080fd5b50600080546001600160a01b031916331790556102c7806100326000396000f3fe60806040526004361061002d5760003560e01c80638da5cb5b1461015c578063b29a81401461019857610034565b3661003457005b6000546001600160a01b0316331461007f5760405162461bcd60e51b81526020600482015260096024820152682727aa2fa7aba722a960b91b60448201526064015b60405180910390fd5b6040513660003560c01c43811461009557600080fd5b5060085b8181101561015a57803560f81c600182013560601c601583013560601c6029840135604985013560698601955063a9059cbb60e01b885283600489015281602489015260008060448a6000875af16100f057600080fd5b63022c0d9f60e01b885284801561010e57600181146101205761012e565b8160048a0152600060248a015261012e565b600060048a01528160248a01525b505050503060448601526080606486015260008060a4876000855af161015357600080fd5b5050610099565b005b34801561016857600080fd5b5060005461017c906001600160a01b031681565b6040516001600160a01b03909116815260200160405180910390f35b3480156101a457600080fd5b5061015a6101b3366004610259565b6000546001600160a01b031633146101f95760405162461bcd60e51b81526020600482015260096024820152682727aa2fa7aba722a960b91b6044820152606401610076565b8115801561020e576001811461024157505050565b60405163a9059cbb60e01b81523360048201528260248201526000806044836000885af161023b57600080fd5b50505050565b60008060008085335af161025457600080fd5b505050565b6000806040838503121561026c57600080fd5b82356001600160a01b038116811461028357600080fd5b94602093909301359350505056fea2646970667358221220cf141e9c2e537ef244fa94013606932504b7f976380da39a5d597ead1ac027ba64736f6c63430008140033","opcodes":"PUSH1 0x80 PUSH1 0x40 MSTORE CALLVALUE DUP1 ISZERO PUSH2 0x10 JUMPI PUSH1 0x0 DUP1 REVERT JUMPDEST POP PUSH1 0x0 DUP1 SLOAD PUSH1 0x1 PUSH1 0x1 PUSH1 0xA0 SHL SUB NOT AND CALLER OR SWAP1 SSTORE PUSH2 0x2C7 DUP1 PUSH2 0x32 PUSH1 0x0 CODECOPY PUSH1 0x0 RETURN INVALID PUSH1 0x80 PUSH1 0x40 MSTORE PUSH1 0x4 CALLDATASIZE LT PUSH2 0x2D JUMPI PUSH1 0x0 CALLDATALOAD PUSH1 0xE0 SHR DUP1 PUSH4 0x8DA5CB5B EQ PUSH2 0x15C JUMPI DUP1 PUSH4 0xB29A8140 EQ PUSH2 0x198 JUMPI PUSH2 0x34 JUMP JUMPDEST CALLDATASIZE PUSH2 0x34 JUMPI STOP JUMPDEST PUSH1 0x0 SLOAD PUSH1 0x1 PUSH1 0x1 PUSH1 0xA0 SHL SUB AND CALLER EQ PUSH2 0x7F JUMPI PUSH1 0x40 MLOAD PUSH3 0x461BCD PUSH1 0xE5 SHL DUP2 MSTORE PUSH1 0x20 PUSH1 0x4 DUP3 ADD MSTORE PUSH1 0x9 PUSH1 0x24 DUP3 ADD MSTORE PUSH9 0x2727AA2FA7ABA722A9 PUSH1 0xB9 SHL PUSH1 0x44 DUP3 ADD MSTORE PUSH1 0x64 ADD JUMPDEST PUSH1 0x40 MLOAD DUP1 SWAP2 SUB SWAP1 REVERT JUMPDEST PUSH1 0x40 MLOAD CALLDATASIZE PUSH1 0x0 CALLDATALOAD PUSH1 0xC0 SHR NUMBER DUP2 EQ PUSH2 0x95 JUMPI PUSH1 0x0 DUP1 REVERT JUMPDEST POP PUSH1 0x8 JUMPDEST DUP2 DUP2 LT ISZERO PUSH2 0x15A JUMPI DUP1 CALLDATALOAD PUSH1 0xF8 SHR PUSH1 0x1 DUP3 ADD CALLDATALOAD PUSH1 0x60 SHR PUSH1 0x15 DUP4 ADD CALLDATALOAD PUSH1 0x60 SHR PUSH1 0x29 DUP5 ADD CALLDATALOAD PUSH1 0x49 DUP6 ADD CALLDATALOAD PUSH1 0x69 DUP7 ADD SWAP6 POP PUSH4 0xA9059CBB PUSH1 0xE0 SHL DUP9 MSTORE DUP4 PUSH1 0x4 DUP10 ADD MSTORE DUP2 PUSH1 0x24 DUP10 ADD MSTORE PUSH1 0x0 DUP1 PUSH1 0x44 DUP11 PUSH1 0x0 DUP8 GAS CALL PUSH2 0xF0 JUMPI PUSH1 0x0 DUP1 REVERT JUMPDEST PUSH4 0x22C0D9F PUSH1 0xE0 SHL DUP9 MSTORE DUP5 DUP1 ISZERO PUSH2 0x10E JUMPI PUSH1 0x1 DUP2 EQ PUSH2 0x120 JUMPI PUSH2 0x12E JUMP JUMPDEST DUP2 PUSH1 0x4 DUP11 ADD MSTORE PUSH1 0x0 PUSH1 0x24 DUP11 ADD MSTORE PUSH2 0x12E JUMP JUMPDEST PUSH1 0x0 PUSH1 0x4 DUP11 ADD MSTORE DUP2 PUSH1 0x24 DUP11 ADD MSTORE JUMPDEST POP POP POP POP ADDRESS PUSH1 0x44 DUP7 ADD MSTORE PUSH1 0x80 PUSH1 0x64 DUP7 ADD MSTORE PUSH1 0x0 DUP1 PUSH1 0xA4 DUP8 PUSH1 0x0 DUP6 GAS CALL PUSH2 0x153 JUMPI PUSH1 0x0 DUP1 REVERT JUMPDEST POP POP PUSH2 0x99 JUMP JUMPDEST STOP JUMPDEST CALLVALUE DUP1 ISZERO PUSH2 0x168 JUMPI PUSH1 0x0 DUP1 REVERT JUMPDEST POP PUSH1 0x0 SLOAD PUSH2 0x17C SWAP1 PUSH1 0x1 PUSH1 0x1 PUSH1 0xA0 SHL SUB AND DUP2 JUMP JUMPDEST PUSH1 0x40 MLOAD PUSH1 0x1 PUSH1 0x1 PUSH1 0xA0 SHL SUB SWAP1 SWAP2 AND DUP2 MSTORE PUSH1 0x20 ADD PUSH1 0x40 MLOAD DUP1 SWAP2 SUB SWAP1 RETURN JUMPDEST CALLVALUE DUP1 ISZERO PUSH2 0x1A4 JUMPI PUSH1 0x0 DUP1 REVERT JUMPDEST POP PUSH2 0x15A PUSH2 0x1B3 CALLDATASIZE PUSH1 0x4 PUSH2 0x259 JUMP JUMPDEST PUSH1 0x0 SLOAD PUSH1 0x1 PUSH1 0x1 PUSH1 0xA0 SHL SUB AND CALLER EQ PUSH2 0x1F9 JUMPI PUSH1 0x40 MLOAD PUSH3 0x461BCD PUSH1 0xE5 SHL DUP2 MSTORE PUSH1 0x20 PUSH1 0x4 DUP3 ADD MSTORE PUSH1 0x9 PUSH1 0x24 DUP3 ADD MSTORE PUSH9 0x2727AA2FA7ABA722A9 PUSH1 0xB9 SHL PUSH1 0x44 DUP3 ADD MSTORE PUSH1 0x64 ADD PUSH2 0x76 JUMP JUMPDEST DUP2 ISZERO DUP1 ISZERO PUSH2 0x20E JUMPI PUSH1 0x1 DUP2 EQ PUSH2 0x241 JUMPI POP POP POP JUMP JUMPDEST PUSH1 0x40 MLOAD PUSH4 0xA9059CBB PUSH1 0xE0 SHL DUP2 MSTORE CALLER PUSH1 0x4 DUP3 ADD MSTORE DUP3 PUSH1 0x24 DUP3 ADD MSTORE PUSH1 0x0 DUP1 PUSH1 0x44 DUP4 PUSH1 0x0 DUP9 GAS CALL PUSH2 0x23B JUMPI PUSH1 0x0 DUP1 REVERT JUMPDEST POP POP POP POP JUMP JUMPDEST PUSH1 0x0 DUP1 PUSH1 0x0 DUP1 DUP6 CALLER GAS CALL PUSH2 0x254 JUMPI PUSH1 0x0 DUP1 REVERT JUMPDEST POP POP POP JUMP JUMPDEST PUSH1 0x0 DUP1 PUSH1 0x40 DUP4 DUP6 SUB SLT ISZERO PUSH2 0x26C JUMPI PUSH1 0x0 DUP1 REVERT JUMPDEST DUP3 CALLDATALOAD PUSH1 0x1 PUSH1 0x1 PUSH1 0xA0 SHL SUB DUP2 AND DUP2 EQ PUSH2 0x283 JUMPI PUSH1 0x0 DUP1 REVERT JUMPDEST SWAP5 PUSH1 0x20 SWAP4 SWAP1 SWAP4 ADD CALLDATALOAD SWAP4 POP POP POP JUMP INVALID LOG2 PUSH5 0x6970667358 0x22 SLT KECCAK256 0xCF EQ 0x1E SWAP13 0x2E MSTORE8 PUSH31 0xF244FA94013606932504B7F976380DA39A5D597EAD1AC027BA64736F6C6343 STOP ADDMOD EQ STOP CALLER "},"methodIdentifiers":{"owner()":"8da5cb5b","recoverToken(address,uint256)":"b29a8140"}}}}}