{"contracts/src/SandoooV3.sol":{"SandoooV3":{"abi":[{"inputs":[{"internalType":"address","name":"_aavePool","type":"address"}],"stateMutability":"nonpayable","type":"constructor"},{"inputs":[],"name":"EthTransferFailed","type":"error"},{"inputs":[],"name":"InsufficientProfit","type":"error"},{"inputs":[],"name":"InvalidData","type":"error"},{"inputs":[],"name":"InvalidInitiator","type":"error"},{"inputs":[],"name":"NotOwner","type":"error"},{"inputs":[],"name":"Unauthorized","type":"error"},{"inputs":[],"name":"WrongBlock","type":"error"},{"stateMutability":"payable","type":"fallback"},{"inputs":[],"name":"AAVE_POOL","outputs":[{"internalType":"address","name":"","type":"address"}],"stateMutability":"view","type":"function"},{"inputs":[{"internalType":"address","name":"asset","type":"address"},{"internalType":"uint256","name":"amount","type":"uint256"},{"internalType":"uint256","name":"premium","type":"uint256"},{"internalType":"address","name":"initiator","type":"address"},{"internalType":"bytes","name":"params","type":"bytes"}],"name":"executeOperation","outputs":[{"internalType":"bool","name":"","type":"bool"}],"stateMutability":"nonpayable","type":"function"},{"inputs":[{"internalType":"address[]","name":"","type":"address[]"},{"internalType":"uint256[]","name":"","type":"uint256[]"},{"internalType":"uint256[]","name":"","type":"uint256[]"},{"internalType":"address","name":"","type":"address"},{"internalType":"bytes","name":"","type":"bytes"}],"name":"executeOperation","outputs":[{"internalType":"bool","name":"","type":"bool"}],"stateMutability":"pure","type":"function"},{"inputs":[{"internalType":"address","name":"asset","type":"address"},{"internalType":"uint256","name":"amount","type":"uint256"},{"internalType":"bytes","name":"sandwichData","type":"bytes"}],"name":"executeSandwichWithFlashloan","outputs":[],"stateMutability":"nonpayable","type":"function"},{"inputs":[],"name":"owner","outputs":[{"internalType":"address","name":"","type":"address"}],"stateMutability":"view","type":"function"},{"inputs":[],"name":"recoverETH","outputs":[],"stateMutability":"nonpayable","type":"function"},{"inputs":[{"internalType":"address","name":"token","type":"address"},{"internalType":"uint256","name":"amount","type":"uint256"}],"name":"recoverToken","outputs":[],"stateMutability":"nonpayable","type":"function"},{"stateMutability":"payable","type":"receive"}],"evm":{"bytecode":{"linkReferences":{},"object":"60c0604052600160005534801561001557600080fd5b50604051610d76380380610d7683398101604081905261003491610049565b336080526001600160a01b031660a052610079565b60006020828403121561005b57600080fd5b81516001600160a01b038116811461007257600080fd5b9392505050565b60805160a051610c936100e36000396000818160f10152818161031f015281816104320152818161045e015261059f015260008181610192015281816101ff01528181610241015281816104a30152818161068a0152818161071201526107560152610c936000f3fe6080604052600436106100745760003560e01c80635c68e2601161004e5780635c68e260146101605780638da5cb5b14610180578063920f5c84146101b4578063b29a8140146101d45761007b565b80630614117a146100c857806308a01675146100df5780631b11d0ff146101305761007b565b3661007b57005b60405162461bcd60e51b815260206004820152601860248201527f4449524543545f43414c4c535f4e4f545f414c4c4f574544000000000000000060448201526064015b60405180910390fd5b3480156100d457600080fd5b506100dd6101f4565b005b3480156100eb57600080fd5b506101137f000000000000000000000000000000000000000000000000000000000000000081565b6040516001600160a01b0390911681526020015b60405180910390f35b34801561013c57600080fd5b5061015061014b366004610950565b6102d4565b6040519015158152602001610127565b34801561016c57600080fd5b506100dd61017b3660046109c8565b610498565b34801561018c57600080fd5b506101137f000000000000000000000000000000000000000000000000000000000000000081565b3480156101c057600080fd5b506101506101cf366004610a67565b6106bc565b3480156101e057600080fd5b506100dd6101ef366004610b41565b610707565b336001600160a01b037f0000000000000000000000000000000000000000000000000000000000000000161461023d576040516330cd747160e01b815260040160405180910390fd5b60007f00000000000000000000000000000000000000000000000000000000000000006001600160a01b03164760405160006040518083038185875af1925050503d80600081146102aa576040519150601f19603f3d011682016040523d82523d6000602084013e6102af565b606091505b50509050806102d157604051630db2c7f160e31b815260040160405180910390fd5b50565b600080546001146103105760405162461bcd60e51b81526020600482015260066024820152651313d0d2d15160d21b60448201526064016100bf565b60008055336001600160a01b037f0000000000000000000000000000000000000000000000000000000000000000161461035c576040516282b42960e81b815260040160405180910390fd5b6001600160a01b0384163014610385576040516317fb43e560e31b815260040160405180910390fd5b60006103918688610b81565b905061039e88858561077f565b6040516370a0823160e01b81523060048201526000906001600160a01b038a16906370a0823190602401602060405180830381865afa1580156103e5573d6000803e3d6000fd5b505050506040513d601f19601f820116820180604052508101906104099190610b9a565b90508181101561042c57604051632723fc7560e11b815260040160405180910390fd5b610458897f00000000000000000000000000000000000000000000000000000000000000006000610801565b610483897f000000000000000000000000000000000000000000000000000000000000000084610801565b60019250505060016000559695505050505050565b336001600160a01b037f000000000000000000000000000000000000000000000000000000000000000016146104e1576040516330cd747160e01b815260040160405180910390fd5b60005460011461051c5760405162461bcd60e51b81526020600482015260066024820152651313d0d2d15160d21b60448201526064016100bf565b6000805560088111158061054557506069610538600883610bb3565b6105429190610bc6565b15155b1561056357604051635cb045db60e01b815260040160405180910390fd5b813560c01c43811461058857604051637890ce5960e11b815260040160405180910390fd5b6040516310ac2ddf60e21b81526001600160a01b037f000000000000000000000000000000000000000000000000000000000000000016906342b0b77c906105df9030908990899089908990600090600401610be8565b600060405180830381600087803b1580156105f957600080fd5b505af115801561060d573d6000803e3d6000fd5b50506040516370a0823160e01b8152306004820152600092506001600160a01b03881691506370a0823190602401602060405180830381865afa158015610658573d6000803e3d6000fd5b505050506040513d601f19601f8201168201806040525081019061067c9190610b9a565b905080156106af576106af867f000000000000000000000000000000000000000000000000000000000000000083610858565b5050600160005550505050565b60405162461bcd60e51b815260206004820152601960248201527f4d554c54495f41535345545f4e4f545f535550504f525445440000000000000060448201526000906064016100bf565b336001600160a01b037f00000000000000000000000000000000000000000000000000000000000000001614610750576040516330cd747160e01b815260040160405180910390fd5b61077b827f000000000000000000000000000000000000000000000000000000000000000083610858565b5050565b6008815b808210156107fa57600084848481811061079f5761079f610c47565b600192013560f81c821492506107b791905084610b81565b60688101935085018035606090811c91601481013590911c90602881013590604801356107e5838584610858565b6107f0848683610885565b5050505050610783565b5050505050565b60405163095ea7b360e01b81528260048201528160248201526000806044836000885af161082e57600080fd5b3d8015610842576020811461084757600080fd5b6107fa565b60206000833e81516107fa57600080fd5b60405163a9059cbb60e01b81528260048201528160248201526000806044836000885af161082e57600080fd5b60405163022c0d9f60e01b81528280156108ab57600060048301528260248301526108b9565b826004830152600060248301525b503060601b604482015260a060648201526000608482015260008060a4836000885af16108e557600080fd5b50505050565b80356001600160a01b038116811461090257600080fd5b919050565b60008083601f84011261091957600080fd5b50813567ffffffffffffffff81111561093157600080fd5b60208301915083602082850101111561094957600080fd5b9250929050565b60008060008060008060a0878903121561096957600080fd5b610972876108eb565b9550602087013594506040870135935061098e606088016108eb565b9250608087013567ffffffffffffffff8111156109aa57600080fd5b6109b689828a01610907565b979a9699509497509295939492505050565b600080600080606085870312156109de57600080fd5b6109e7856108eb565b935060208501359250604085013567ffffffffffffffff811115610a0a57600080fd5b610a1687828801610907565b95989497509550505050565b60008083601f840112610a3457600080fd5b50813567ffffffffffffffff811115610a4c57600080fd5b6020830191508360208260051b850101111561094957600080fd5b600080600080600080600080600060a08a8c031215610a8557600080fd5b893567ffffffffffffffff80821115610a9d57600080fd5b610aa98d838e01610a22565b909b50995060208c0135915080821115610ac257600080fd5b610ace8d838e01610a22565b909950975060408c0135915080821115610ae757600080fd5b610af38d838e01610a22565b9097509550859150610b0760608d016108eb565b945060808c0135915080821115610b1d57600080fd5b50610b2a8c828d01610907565b915080935050809150509295985092959850929598565b60008060408385031215610b5457600080fd5b610b5d836108eb565b946020939093013593505050565b634e487b7160e01b600052601160045260246000fd5b80820180821115610b9457610b94610b6b565b92915050565b600060208284031215610bac57600080fd5b5051919050565b81810381811115610b9457610b94610b6b565b600082610be357634e487b7160e01b600052601260045260246000fd5b500690565b6001600160a01b038781168252861660208201526040810185905260a06060820181905281018390526000838560c0840137600060c0858401015260c0601f19601f860116830101905061ffff83166080830152979650505050505050565b634e487b7160e01b600052603260045260246000fdfea26469706673582212201455a40d28232957c3d9041c034148d138a4470f776e3c313d08bb5bcef8376a64736f6c63430008140033","opcodes":"PUSH1 0xC0 PUSH1 0x40 MSTORE PUSH1 0x1 PUSH1 0x0 SSTORE CALLVALUE DUP1 ISZERO PUSH2 0x15 JUMPI PUSH1 0x0 DUP1 REVERT JUMPDEST POP PUSH1 0x40 MLOAD PUSH2 0xD76 CODESIZE SUB DUP1 PUSH2 0xD76 DUP4 CODECOPY DUP2 ADD PUSH1 0x40 DUP2 SWAP1 MSTORE PUSH2 0x34 SWAP2 PUSH2 0x49 JUMP JUMPDEST CALLER PUSH1 0x80 MSTORE PUSH1 0x1 PUSH1 0x1 PUSH1 0xA0 SHL SUB AND PUSH1 0xA0 MSTORE PUSH2 0x79 JUMP JUMPDEST PUSH1 0x0 PUSH1 0x20 DUP3 DUP5 SUB SLT ISZERO PUSH2 0x5B JUMPI PUSH1 0x0 DUP1 REVERT JUMPDEST DUP2 MLOAD PUSH1 0x1 PUSH1 0x1 PUSH1 0xA0 SHL SUB DUP2 AND DUP2 EQ PUSH2 0x72 JUMPI PUSH1 0x0 DUP1 REVERT JUMPDEST SWAP4 SWAP3 POP POP POP JUMP JUMPDEST PUSH1 0x80 MLOAD PUSH1 0xA0 MLOAD PUSH2 0xC93 PUSH2 0xE3 PUSH1 0x0 CODECOPY PUSH1 0x0 DUP2 DUP2 PUSH1 0xF1 ADD MSTORE DUP2 DUP2 PUSH2 0x31F ADD MSTORE DUP2 DUP2 PUSH2 0x432 ADD MSTORE DUP2 DUP2 PUSH2 0x45E ADD MSTORE PUSH2 0x59F ADD MSTORE PUSH1 0x0 DUP2 DUP2 PUSH2 0x192 ADD MSTORE DUP2 DUP2 PUSH2 0x1FF ADD MSTORE DUP2 DUP2 PUSH2 0x241 ADD MSTORE DUP2 DUP2 PUSH2 0x4A3 ADD MSTORE DUP2 DUP2 PUSH2 0x68A ADD MSTORE DUP2 DUP2 PUSH2 0x712 ADD MSTORE PUSH2 0x756 ADD MSTORE PUSH2 0xC93 PUSH1 0x0 RETURN INVALID PUSH1 0x80 PUSH1 0x40 MSTORE PUSH1 0x4 CALLDATASIZE LT PUSH2 0x74 JUMPI PUSH1 0x0 CALLDATALOAD PUSH1 0xE0 SHR DUP1 PUSH4 0x5C68E260 GT PUSH2 0x4E JUMPI DUP1 PUSH4 0x5C68E260 EQ PUSH2 0x160 JUMPI DUP1 PUSH4 0x8DA5CB5B EQ PUSH2 0x180 JUMPI DUP1 PUSH4 0x920F5C84 EQ PUSH2 0x1B4 JUMPI DUP1 PUSH4 0xB29A8140 EQ PUSH2 0x1D4 JUMPI PUSH2 0x7B JUMP JUMPDEST DUP1 PUSH4 0x614117A EQ PUSH2 0xC8 JUMPI DUP1 PUSH4 0x8A01675 EQ PUSH2 0xDF JUMPI DUP1 PUSH4 0x1B11D0FF EQ PUSH2 0x130 JUMPI PUSH2 0x7B JUMP JUMPDEST CALLDATASIZE PUSH2 0x7B JUMPI STOP JUMPDEST PUSH1 0x40 MLOAD PUSH3 0x461BCD PUSH1 0xE5 SHL DUP2 MSTORE PUSH1 0x20 PUSH1 0x4 DUP3 ADD MSTORE PUSH1 0x18 PUSH1 0x24 DUP3 ADD MSTORE PUSH32 0x4449524543545F43414C4C535F4E4F545F414C4C4F5745440000000000000000 PUSH1 0x44 DUP3 ADD MSTORE PUSH1 0x64 ADD JUMPDEST PUSH1 0x40 MLOAD DUP1 SWAP2 SUB SWAP1 REVERT JUMPDEST CALLVALUE DUP1 ISZERO PUSH2 0xD4 JUMPI PUSH1 0x0 DUP1 REVERT JUMPDEST POP PUSH2 0xDD PUSH2 0x1F4 JUMP JUMPDEST STOP JUMPDEST CALLVALUE DUP1 ISZERO PUSH2 0xEB JUMPI PUSH1 0x0 DUP1 REVERT JUMPDEST POP PUSH2 0x113 PUSH32 0x0 DUP2 JUMP JUMPDEST PUSH1 0x40 MLOAD PUSH1 0x1 PUSH1 0x1 PUSH1 0xA0 SHL SUB SWAP1 SWAP2 AND DUP2 MSTORE PUSH1 0x20 ADD JUMPDEST PUSH1 0x40 MLOAD DUP1 SWAP2 SUB SWAP1 RETURN JUMPDEST CALLVALUE DUP1 ISZERO PUSH2 0x13C JUMPI PUSH1 0x0 DUP1 REVERT JUMPDEST POP PUSH2 0x150 PUSH2 0x14B CALLDATASIZE PUSH1 0x4 PUSH2 0x950 JUMP JUMPDEST PUSH2 0x2D4 JUMP JUMPDEST PUSH1 0x40 MLOAD SWAP1 ISZERO ISZERO DUP2 MSTORE PUSH1 0x20 ADD PUSH2 0x127 JUMP JUMPDEST CALLVALUE DUP1 ISZERO PUSH2 0x16C JUMPI PUSH1 0x0 DUP1 REVERT JUMPDEST POP PUSH2 0xDD PUSH2 0x17B CALLDATASIZE PUSH1 0x4 PUSH2 0x9C8 JUMP JUMPDEST PUSH2 0x498 JUMP JUMPDEST CALLVALUE DUP1 ISZERO PUSH2 0x18C JUMPI PUSH1 0x0 DUP1 REVERT JUMPDEST POP PUSH2 0x113 PUSH32 0x0 DUP2 JUMP JUMPDEST CALLVALUE DUP1 ISZERO PUSH2 0x1C0 JUMPI PUSH1 0x0 DUP1 REVERT JUMPDEST POP PUSH2 0x150 PUSH2 0x1CF CALLDATASIZE PUSH1 0x4 PUSH2 0xA67 JUMP JUMPDEST PUSH2 0x6BC JUMP JUMPDEST CALLVALUE DUP1 ISZERO PUSH2 0x1E0 JUMPI PUSH1 0x0 DUP1 REVERT JUMPDEST POP PUSH2 0xDD PUSH2 0x1EF CALLDATASIZE PUSH1 0x4 PUSH2 0xB41 JUMP JUMPDEST PUSH2 0x707 JUMP JUMPDEST CALLER PUSH1 0x1 PUSH1 0x1 PUSH1 0xA0 SHL SUB PUSH32 0x0 AND EQ PUSH2 0x23D JUMPI PUSH1 0x40 MLOAD PUSH4 0x30CD7471 PUSH1 0xE0 SHL DUP2 MSTORE PUSH1 0x4 ADD PUSH1 0x40 MLOAD DUP1 SWAP2 SUB SWAP1 REVERT JUMPDEST PUSH1 0x0 PUSH32 0x0 PUSH1 0x1 PUSH1 0x1 PUSH1 0xA0 SHL SUB AND SELFBALANCE PUSH1 0x40 MLOAD PUSH1 0x0 PUSH1 0x40 MLOAD DUP1 DUP4 SUB DUP2 DUP6 DUP8 GAS CALL SWAP3 POP POP POP RETURNDATASIZE DUP1 PUSH1 0x0 DUP2 EQ PUSH2 0x2AA JUMPI PUSH1 0x40 MLOAD SWAP2 POP PUSH1 0x1F NOT PUSH1 0x3F RETURNDATASIZE ADD AND DUP3 ADD PUSH1 0x40 MSTORE RETURNDATASIZE DUP3 MSTORE RETURNDATASIZE PUSH1 0x0 PUSH1 0x20 DUP5 ADD RETURNDATACOPY PUSH2 0x2AF JUMP JUMPDEST PUSH1 0x60 SWAP2 POP JUMPDEST POP POP SWAP1 POP DUP1 PUSH2 0x2D1 JUMPI PUSH1 0x40 MLOAD PUSH4 0xDB2C7F1 PUSH1 0xE3 SHL DUP2 MSTORE PUSH1 0x4 ADD PUSH1 0x40 MLOAD DUP1 SWAP2 SUB SWAP1 REVERT JUMPDEST POP JUMP JUMPDEST PUSH1 0x0 DUP1 SLOAD PUSH1 0x1 EQ PUSH2 0x310 JUMPI PUSH1 0x40 MLOAD PUSH3 0x461BCD PUSH1 0xE5 SHL DUP2 MSTORE PUSH1 0x20 PUSH1 0x4 DUP3 ADD MSTORE PUSH1 0x6 PUSH1 0x24 DUP3 ADD MSTORE PUSH6 0x1313D0D2D151 PUSH1 0xD2 SHL PUSH1 0x44 DUP3 ADD MSTORE PUSH1 0x64 ADD PUSH2 0xBF JUMP JUMPDEST PUSH1 0x0 DUP1 SSTORE CALLER PUSH1 0x1 PUSH1 0x1 PUSH1 0xA0 SHL SUB PUSH32 0x0 AND EQ PUSH2 0x35C JUMPI PUSH1 0x40 MLOAD PUSH3 0x82B429 PUSH1 0xE8 SHL DUP2 MSTORE PUSH1 0x4 ADD PUSH1 0x40 MLOAD DUP1 SWAP2 SUB SWAP1 REVERT JUMPDEST PUSH1 0x1 PUSH1 0x1 PUSH1 0xA0 SHL SUB DUP5 AND ADDRESS EQ PUSH2 0x385 JUMPI PUSH1 0x40 MLOAD PUSH4 0x17FB43E5 PUSH1 0xE3 SHL DUP2 MSTORE PUSH1 0x4 ADD PUSH1 0x40 MLOAD DUP1 SWAP2 SUB SWAP1 REVERT JUMPDEST PUSH1 0x0 PUSH2 0x391 DUP7 DUP9 PUSH2 0xB81 JUMP JUMPDEST SWAP1 POP PUSH2 0x39E DUP9 DUP6 DUP6 PUSH2 0x77F JUMP JUMPDEST PUSH1 0x40 MLOAD PUSH4 0x70A08231 PUSH1 0xE0 SHL DUP2 MSTORE ADDRESS PUSH1 0x4 DUP3 ADD MSTORE PUSH1 0x0 SWAP1 PUSH1 0x1 PUSH1 0x1 PUSH1 0xA0 SHL SUB DUP11 AND SWAP1 PUSH4 0x70A08231 SWAP1 PUSH1 0x24 ADD PUSH1 0x20 PUSH1 0x40 MLOAD DUP1 DUP4 SUB DUP2 DUP7 GAS STATICCALL ISZERO DUP1 ISZERO PUSH2 0x3E5 JUMPI RETURNDATASIZE PUSH1 0x0 DUP1 RETURNDATACOPY RETURNDATASIZE PUSH1 0x0 REVERT JUMPDEST POP POP POP POP PUSH1 0x40 MLOAD RETURNDATASIZE PUSH1 0x1F NOT PUSH1 0x1F DUP3 ADD AND DUP3 ADD DUP1 PUSH1 0x40 MSTORE POP DUP2 ADD SWAP1 PUSH2 0x409 SWAP2 SWAP1 PUSH2 0xB9A JUMP JUMPDEST SWAP1 POP DUP2 DUP2 LT ISZERO PUSH2 0x42C JUMPI PUSH1 0x40 MLOAD PUSH4 0x2723FC75 PUSH1 0xE1 SHL DUP2 MSTORE PUSH1 0x4 ADD PUSH1 0x40 MLOAD DUP1 SWAP2 SUB SWAP1 REVERT JUMPDEST PUSH2 0x458 DUP10 PUSH32 0x0 PUSH1 0x0 PUSH2 0x801 JUMP JUMPDEST PUSH2 0x483 DUP10 PUSH32 0x0 DUP5 PUSH2 0x801 JUMP JUMPDEST PUSH1 0x1 SWAP3 POP POP POP PUSH1 0x1 PUSH1 0x0 SSTORE SWAP7 SWAP6 POP POP POP POP POP POP JUMP JUMPDEST CALLER PUSH1 0x1 PUSH1 0x1 PUSH1 0xA0 SHL SUB PUSH32 0x0 AND EQ PUSH2 0x4E1 JUMPI PUSH1 0x40 MLOAD PUSH4 0x30CD7471 PUSH1 0xE0 SHL DUP2 MSTORE PUSH1 0x4 ADD PUSH1 0x40 MLOAD DUP1 SWAP2 SUB SWAP1 REVERT JUMPDEST PUSH1 0x0 SLOAD PUSH1 0x1 EQ PUSH2 0x51C JUMPI PUSH1 0x40 MLOAD PUSH3 0x461BCD PUSH1 0xE5 SHL DUP2 MSTORE PUSH1 0x20 PUSH1 0x4 DUP3 ADD MSTORE PUSH1 0x6 PUSH1 0x24 DUP3 ADD MSTORE PUSH6 0x1313D0D2D151 PUSH1 0xD2 SHL PUSH1 0x44 DUP3 ADD MSTORE PUSH1 0x64 ADD PUSH2 0xBF JUMP JUMPDEST PUSH1 0x0 DUP1 SSTORE PUSH1 0x8 DUP2 GT ISZERO DUP1 PUSH2 0x545 JUMPI POP PUSH1 0x69 PUSH2 0x538 PUSH1 0x8 DUP4 PUSH2 0xBB3 JUMP JUMPDEST PUSH2 0x542 SWAP2 SWAP1 PUSH2 0xBC6 JUMP JUMPDEST ISZERO ISZERO JUMPDEST ISZERO PUSH2 0x563 JUMPI PUSH1 0x40 MLOAD PUSH4 0x5CB045DB PUSH1 0xE0 SHL DUP2 MSTORE PUSH1 0x4 ADD PUSH1 0x40 MLOAD DUP1 SWAP2 SUB SWAP1 REVERT JUMPDEST DUP2 CALLDATALOAD PUSH1 0xC0 SHR NUMBER DUP2 EQ PUSH2 0x588 JUMPI PUSH1 0x40 MLOAD PUSH4 0x7890CE59 PUSH1 0xE1 SHL DUP2 MSTORE PUSH1 0x4 ADD PUSH1 0x40 MLOAD DUP1 SWAP2 SUB SWAP1 REVERT JUMPDEST PUSH1 0x40 MLOAD PUSH4 0x10AC2DDF PUSH1 0xE2 SHL DUP2 MSTORE PUSH1 0x1 PUSH1 0x1 PUSH1 0xA0 SHL SUB PUSH32 0x0 AND SWAP1 PUSH4 0x42B0B77C SWAP1 PUSH2 0x5DF SWAP1 ADDRESS SWAP1 DUP10 SWAP1 DUP10 SWAP1 DUP10 SWAP1 DUP10 SWAP1 PUSH1 0x0 SWAP1 PUSH1 0x4 ADD PUSH2 0xBE8 JUMP JUMPDEST PUSH1 0x0 PUSH1 0x40 MLOAD DUP1 DUP4 SUB DUP2 PUSH1 0x0 DUP8 DUP1 EXTCODESIZE ISZERO DUP1 ISZERO PUSH2 0x5F9 JUMPI PUSH1 0x0 DUP1 REVERT JUMPDEST POP GAS CALL ISZERO DUP1 ISZERO PUSH2 0x60D JUMPI RETURNDATASIZE PUSH1 0x0 DUP1 RETURNDATACOPY RETURNDATASIZE PUSH1 0x0 REVERT JUMPDEST POP POP PUSH1 0x40 MLOAD PUSH4 0x70A08231 PUSH1 0xE0 SHL DUP2 MSTORE ADDRESS PUSH1 0x4 DUP3 ADD MSTORE PUSH1 0x0 SWAP3 POP PUSH1 0x1 PUSH1 0x1 PUSH1 0xA0 SHL SUB DUP9 AND SWAP2 POP PUSH4 0x70A08231 SWAP1 PUSH1 0x24 ADD PUSH1 0x20 PUSH1 0x40 MLOAD DUP1 DUP4 SUB DUP2 DUP7 GAS STATICCALL ISZERO DUP1 ISZERO PUSH2 0x658 JUMPI RETURNDATASIZE PUSH1 0x0 DUP1 RETURNDATACOPY RETURNDATASIZE PUSH1 0x0 REVERT JUMPDEST POP POP POP POP PUSH1 0x40 MLOAD RETURNDATASIZE PUSH1 0x1F NOT PUSH1 0x1F DUP3 ADD AND DUP3 ADD DUP1 PUSH1 0x40 MSTORE POP DUP2 ADD SWAP1 PUSH2 0x67C SWAP2 SWAP1 PUSH2 0xB9A JUMP JUMPDEST SWAP1 POP DUP1 ISZERO PUSH2 0x6AF JUMPI PUSH2 0x6AF DUP7 PUSH32 0x0 DUP4 PUSH2 0x858 JUMP JUMPDEST POP POP PUSH1 0x1 PUSH1 0x0 SSTORE POP POP POP POP JUMP JUMPDEST PUSH1 0x40 MLOAD PUSH3 0x461BCD PUSH1 0xE5 SHL DUP2 MSTORE PUSH1 0x20 PUSH1 0x4 DUP3 ADD MSTORE PUSH1 0x19 PUSH1 0x24 DUP3 ADD MSTORE PUSH32 0x4D554C54495F41535345545F4E4F545F535550504F5254454400000000000000 PUSH1 0x44 DUP3 ADD MSTORE PUSH1 0x0 SWAP1 PUSH1 0x64 ADD PUSH2 0xBF JUMP JUMPDEST CALLER PUSH1 0x1 PUSH1 0x1 PUSH1 0xA0 SHL SUB PUSH32 0x0 AND EQ PUSH2 0x750 JUMPI PUSH1 0x40 MLOAD PUSH4 0x30CD7471 PUSH1 0xE0 SHL DUP2 MSTORE PUSH1 0x4 ADD PUSH1 0x40 MLOAD DUP1 SWAP2 SUB SWAP1 REVERT JUMPDEST PUSH2 0x77B DUP3 PUSH32 0x0 DUP4 PUSH2 0x858 JUMP JUMPDEST POP POP JUMP JUMPDEST PUSH1 0x8 DUP2 JUMPDEST DUP1 DUP3 LT ISZERO PUSH2 0x7FA JUMPI PUSH1 0x0 DUP5 DUP5 DUP5 DUP2 DUP2 LT PUSH2 0x79F JUMPI PUSH2 0x79F PUSH2 0xC47 JUMP JUMPDEST PUSH1 0x1 SWAP3 ADD CALLDATALOAD PUSH1 0xF8 SHR DUP3 EQ SWAP3 POP PUSH2 0x7B7 SWAP2 SWAP1 POP DUP5 PUSH2 0xB81 JUMP JUMPDEST PUSH1 0x68 DUP2 ADD SWAP4 POP DUP6 ADD DUP1 CALLDATALOAD PUSH1 0x60 SWAP1 DUP2 SHR SWAP2 PUSH1 0x14 DUP2 ADD CALLDATALOAD SWAP1 SWAP2 SHR SWAP1 PUSH1 0x28 DUP2 ADD CALLDATALOAD SWAP1 PUSH1 0x48 ADD CALLDATALOAD PUSH2 0x7E5 DUP4 DUP6 DUP5 PUSH2 0x858 JUMP JUMPDEST PUSH2 0x7F0 DUP5 DUP7 DUP4 PUSH2 0x885 JUMP JUMPDEST POP POP POP POP POP PUSH2 0x783 JUMP JUMPDEST POP POP POP POP POP JUMP JUMPDEST PUSH1 0x40 MLOAD PUSH4 0x95EA7B3 PUSH1 0xE0 SHL DUP2 MSTORE DUP3 PUSH1 0x4 DUP3 ADD MSTORE DUP2 PUSH1 0x24 DUP3 ADD MSTORE PUSH1 0x0 DUP1 PUSH1 0x44 DUP4 PUSH1 0x0 DUP9 GAS CALL PUSH2 0x82E JUMPI PUSH1 0x0 DUP1 REVERT JUMPDEST RETURNDATASIZE DUP1 ISZERO PUSH2 0x842 JUMPI PUSH1 0x20 DUP2 EQ PUSH2 0x847 JUMPI PUSH1 0x0 DUP1 REVERT JUMPDEST PUSH2 0x7FA JUMP JUMPDEST PUSH1 0x20 PUSH1 0x0 DUP4 RETURNDATACOPY DUP2 MLOAD PUSH2 0x7FA JUMPI PUSH1 0x0 DUP1 REVERT JUMPDEST PUSH1 0x40 MLOAD PUSH4 0xA9059CBB PUSH1 0xE0 SHL DUP2 MSTORE DUP3 PUSH1 0x4 DUP3 ADD MSTORE DUP2 PUSH1 0x24 DUP3 ADD MSTORE PUSH1 0x0 DUP1 PUSH1 0x44 DUP4 PUSH1 0x0 DUP9 GAS CALL PUSH2 0x82E JUMPI PUSH1 0x0 DUP1 REVERT JUMPDEST PUSH1 0x40 MLOAD PUSH4 0x22C0D9F PUSH1 0xE0 SHL DUP2 MSTORE DUP3 DUP1 ISZERO PUSH2 0x8AB JUMPI PUSH1 0x0 PUSH1 0x4 DUP4 ADD MSTORE DUP3 PUSH1 0x24 DUP4 ADD MSTORE PUSH2 0x8B9 JUMP JUMPDEST DUP3 PUSH1 0x4 DUP4 ADD MSTORE PUSH1 0x0 PUSH1 0x24 DUP4 ADD MSTORE JUMPDEST POP ADDRESS PUSH1 0x60 SHL PUSH1 0x44 DUP3 ADD MSTORE PUSH1 0xA0 PUSH1 0x64 DUP3 ADD MSTORE PUSH1 0x0 PUSH1 0x84 DUP3 ADD MSTORE PUSH1 0x0 DUP1 PUSH1 0xA4 DUP4 PUSH1 0x0 DUP9 GAS CALL PUSH2 0x8E5 JUMPI PUSH1 0x0 DUP1 REVERT JUMPDEST POP POP POP POP JUMP JUMPDEST DUP1 CALLDATALOAD PUSH1 0x1 PUSH1 0x1 PUSH1 0xA0 SHL SUB DUP2 AND DUP2 EQ PUSH2 0x902 JUMPI PUSH1 0x0 DUP1 REVERT JUMPDEST SWAP2 SWAP1 POP JUMP JUMPDEST PUSH1 0x0 DUP1 DUP4 PUSH1 0x1F DUP5 ADD SLT PUSH2 0x919 JUMPI PUSH1 0x0 DUP1 REVERT JUMPDEST POP DUP2 CALLDATALOAD PUSH8 0xFFFFFFFFFFFFFFFF DUP2 GT ISZERO PUSH2 0x931 JUMPI PUSH1 0x0 DUP1 REVERT JUMPDEST PUSH1 0x20 DUP4 ADD SWAP2 POP DUP4 PUSH1 0x20 DUP3 DUP6 ADD ADD GT ISZERO PUSH2 0x949 JUMPI PUSH1 0x0 DUP1 REVERT JUMPDEST SWAP3 POP SWAP3 SWAP1 POP JUMP JUMPDEST PUSH1 0x0 DUP1 PUSH1 0x0 DUP1 PUSH1 0x0 DUP1 PUSH1 0xA0 DUP8 DUP10 SUB SLT ISZERO PUSH2 0x969 JUMPI PUSH1 0x0 DUP1 REVERT JUMPDEST PUSH2 0x972 DUP8 PUSH2 0x8EB JUMP JUMPDEST SWAP6 POP PUSH1 0x20 DUP8 ADD CALLDATALOAD SWAP5 POP PUSH1 0x40 DUP8 ADD CALLDATALOAD SWAP4 POP PUSH2 0x98E PUSH1 0x60 DUP9 ADD PUSH2 0x8EB JUMP JUMPDEST SWAP3 POP PUSH1 0x80 DUP8 ADD CALLDATALOAD PUSH8 0xFFFFFFFFFFFFFFFF DUP2 GT ISZERO PUSH2 0x9AA JUMPI PUSH1 0x0 DUP1 REVERT JUMPDEST PUSH2 0x9B6 DUP10 DUP3 DUP11 ADD PUSH2 0x907 JUMP JUMPDEST SWAP8 SWAP11 SWAP7 SWAP10 POP SWAP5 SWAP8 POP SWAP3 SWAP6 SWAP4 SWAP5 SWAP3 POP POP POP JUMP JUMPDEST PUSH1 0x0 DUP1 PUSH1 0x0 DUP1 PUSH1 0x60 DUP6 DUP8 SUB SLT ISZERO PUSH2 0x9DE JUMPI PUSH1 0x0 DUP1 REVERT JUMPDEST PUSH2 0x9E7 DUP6 PUSH2 0x8EB JUMP JUMPDEST SWAP4 POP PUSH1 0x20 DUP6 ADD CALLDATALOAD SWAP3 POP PUSH1 0x40 DUP6 ADD CALLDATALOAD PUSH8 0xFFFFFFFFFFFFFFFF DUP2 GT ISZERO PUSH2 0xA0A JUMPI PUSH1 0x0 DUP1 REVERT JUMPDEST PUSH2 0xA16 DUP8 DUP3 DUP9 ADD PUSH2 0x907 JUMP JUMPDEST SWAP6 SWAP9 SWAP5 SWAP8 POP SWAP6 POP POP POP POP JUMP JUMPDEST PUSH1 0x0 DUP1 DUP4 PUSH1 0x1F DUP5 ADD SLT PUSH2 0xA34 JUMPI PUSH1 0x0 DUP1 REVERT JUMPDEST POP DUP2 CALLDATALOAD PUSH8 0xFFFFFFFFFFFFFFFF DUP2 GT ISZERO PUSH2 0xA4C JUMPI PUSH1 0x0 DUP1 REVERT JUMPDEST PUSH1 0x20 DUP4 ADD SWAP2 POP DUP4 PUSH1 0x20 DUP3 PUSH1 0x5 SHL DUP6 ADD ADD GT ISZERO PUSH2 0x949 JUMPI PUSH1 0x0 DUP1 REVERT JUMPDEST PUSH1 0x0 DUP1 PUSH1 0x0 DUP1 PUSH1 0x0 DUP1 PUSH1 0x0 DUP1 PUSH1 0x0 PUSH1 0xA0 DUP11 DUP13 SUB SLT ISZERO PUSH2 0xA85 JUMPI PUSH1 0x0 DUP1 REVERT JUMPDEST DUP10 CALLDATALOAD PUSH8 0xFFFFFFFFFFFFFFFF DUP1 DUP3 GT ISZERO PUSH2 0xA9D JUMPI PUSH1 0x0 DUP1 REVERT JUMPDEST PUSH2 0xAA9 DUP14 DUP4 DUP15 ADD PUSH2 0xA22 JUMP JUMPDEST SWAP1 SWAP12 POP SWAP10 POP PUSH1 0x20 DUP13 ADD CALLDATALOAD SWAP2 POP DUP1 DUP3 GT ISZERO PUSH2 0xAC2 JUMPI PUSH1 0x0 DUP1 REVERT JUMPDEST PUSH2 0xACE DUP14 DUP4 DUP15 ADD PUSH2 0xA22 JUMP JUMPDEST SWAP1 SWAP10 POP SWAP8 POP PUSH1 0x40 DUP13 ADD CALLDATALOAD SWAP2 POP DUP1 DUP3 GT ISZERO PUSH2 0xAE7 JUMPI PUSH1 0x0 DUP1 REVERT JUMPDEST PUSH2 0xAF3 DUP14 DUP4 DUP15 ADD PUSH2 0xA22 JUMP JUMPDEST SWAP1 SWAP8 POP SWAP6 POP DUP6 SWAP2 POP PUSH2 0xB07 PUSH1 0x60 DUP14 ADD PUSH2 0x8EB JUMP JUMPDEST SWAP5 POP PUSH1 0x80 DUP13 ADD CALLDATALOAD SWAP2 POP DUP1 DUP3 GT ISZERO PUSH2 0xB1D JUMPI PUSH1 0x0 DUP1 REVERT JUMPDEST POP PUSH2 0xB2A DUP13 DUP3 DUP14 ADD PUSH2 0x907 JUMP JUMPDEST SWAP2 POP DUP1 SWAP4 POP POP DUP1 SWAP2 POP POP SWAP3 SWAP6 SWAP9 POP SWAP3 SWAP6 SWAP9 POP SWAP3 SWAP6 SWAP9 JUMP JUMPDEST PUSH1 0x0 DUP1 PUSH1 0x40 DUP4 DUP6 SUB SLT ISZERO PUSH2 0xB54 JUMPI PUSH1 0x0 DUP1 REVERT JUMPDEST PUSH2 0xB5D DUP4 PUSH2 0x8EB JUMP JUMPDEST SWAP5 PUSH1 0x20 SWAP4 SWAP1 SWAP4 ADD CALLDATALOAD SWAP4 POP POP POP JUMP JUMPDEST PUSH4 0x4E487B71 PUSH1 0xE0 SHL PUSH1 0x0 MSTORE PUSH1 0x11 PUSH1 0x4 MSTORE PUSH1 0x24 PUSH1 0x0 REVERT JUMPDEST DUP1 DUP3 ADD DUP1 DUP3 GT ISZERO PUSH2 0xB94 JUMPI PUSH2 0xB94 PUSH2 0xB6B JUMP JUMPDEST SWAP3 SWAP2 POP POP JUMP JUMPDEST PUSH1 0x0 PUSH1 0x20 DUP3 DUP5 SUB SLT ISZERO PUSH2 0xBAC JUMPI PUSH1 0x0 DUP1 REVERT JUMPDEST POP MLOAD SWAP2 SWAP1 POP JUMP JUMPDEST DUP2 DUP2 SUB DUP2 DUP2 GT ISZERO PUSH2 0xB94 JUMPI PUSH2 0xB94 PUSH2 0xB6B JUMP JUMPDEST PUSH1 0x0 DUP3 PUSH2 0xBE3 JUMPI PUSH4 0x4E487B71 PUSH1 0xE0 SHL PUSH1 0x0 MSTORE PUSH1 0x12 PUSH1 0x4 MSTORE PUSH1 0x24 PUSH1 0x0 REVERT JUMPDEST POP MOD SWAP1 JUMP JUMPDEST PUSH1 0x1 PUSH1 0x1 PUSH1 0xA0 SHL SUB DUP8 DUP2 AND DUP3 MSTORE DUP7 AND PUSH1 0x20 DUP3 ADD MSTORE PUSH1 0x40 DUP2 ADD DUP6 SWAP1 MSTORE PUSH1 0xA0 PUSH1 0x60 DUP3 ADD DUP2 SWAP1 MSTORE DUP2 ADD DUP4 SWAP1 MSTORE PUSH1 0x0 DUP4 DUP6 PUSH1 0xC0 DUP5 ADD CALLDATACOPY PUSH1 0x0 PUSH1 0xC0 DUP6 DUP5 ADD ADD MSTORE PUSH1 0xC0 PUSH1 0x1F NOT PUSH1 0x1F DUP7 ADD AND DUP4 ADD ADD SWAP1 POP PUSH2 0xFFFF DUP4 AND PUSH1 0x80 DUP4 ADD MSTORE SWAP8 SWAP7 POP POP POP POP POP POP POP JUMP JUMPDEST PUSH4 0x4E487B71 PUSH1 0xE0 SHL PUSH1 0x0 MSTORE PUSH1 0x32 PUSH1 0x4 MSTORE PUSH1 0x24 PUSH1 0x0 REVERT INVALID LOG2 PUSH5 0x6970667358 0x22 SLT KECCAK256 EQ SSTORE LOG4 0xD 0x28 0x23 0x29 JUMPI 0xC3 0xD9 DIV SHR SUB COINBASE BASEFEE 0xD1 CODESIZE LOG4 SELFBALANCE 0xF PUSH24 0x6E3C313D08BB5BCEF8376A64736F6C634300081400330000 "},"methodIdentifiers":{"AAVE_POOL()":"08a01675","executeOperation(address,uint256,uint256,address,bytes)":"1b11d0ff","executeOperation(address[],uint256[],uint256[],address,bytes)":"920f5c84","executeSandwichWithFlashloan(address,uint256,bytes)":"5c68e260","owner()":"8da5cb5b","recoverETH()":"0614117a","recoverToken(address,uint256)":"b29a8140"}}}}}