{
  "_format": "hh-sol-artifact-1",
  "contractName": "Request",
  "sourceName": "contracts/src/Request.sol",
  "abi": [
    {
      "inputs": [
        {
          "internalType": "address",
          "name": "targetToken",
          "type": "address"
        }
      ],
      "name": "getTokenInfo",
      "outputs": [
        {
          "internalType": "string",
          "name": "name",
          "type": "string"
        },
        {
          "internalType": "string",
          "name": "symbol",
          "type": "string"
        },
        {
          "internalType": "uint8",
          "name": "decimals",
          "type": "uint8"
        },
        {
          "internalType": "uint256",
          "name": "totalSupply",
          "type": "uint256"
        }
      ],
      "stateMutability": "view",
      "type": "function"
    }
  ],
  "bytecode": "0x608060405234801561001057600080fd5b506103f8806100206000396000f3fe608060405234801561001057600080fd5b506004361061002b5760003560e01c80631f69565f14610030575b600080fd5b61004361003e366004610207565b61005c565b6040516100539493929190610287565b60405180910390f35b6060806000806000859050806001600160a01b03166306fdde036040518163ffffffff1660e01b8152600401600060405180830381865afa1580156100a5573d6000803e3d6000fd5b505050506040513d6000823e601f3d908101601f191682016040526100cd91908101906102d9565b9450806001600160a01b03166395d89b416040518163ffffffff1660e01b8152600401600060405180830381865afa15801561010d573d6000803e3d6000fd5b505050506040513d6000823e601f3d908101601f1916820160405261013591908101906102d9565b9350806001600160a01b031663313ce5676040518163ffffffff1660e01b8152600401602060405180830381865afa158015610175573d6000803e3d6000fd5b505050506040513d601f19601f820116820180604052508101906101999190610386565b9250806001600160a01b03166318160ddd6040518163ffffffff1660e01b8152600401602060405180830381865afa1580156101d9573d6000803e3d6000fd5b505050506040513d601f19601f820116820180604052508101906101fd91906103a9565b9150509193509193565b60006020828403121561021957600080fd5b81356001600160a01b038116811461023057600080fd5b9392505050565b60005b8381101561025257818101518382015260200161023a565b50506000910152565b60008151808452610273816020860160208601610237565b601f01601f19169290920160200192915050565b60808152600061029a608083018761025b565b82810360208401526102ac818761025b565b60ff95909516604084015250506060015292915050565b634e487b7160e01b600052604160045260246000fd5b6000602082840312156102eb57600080fd5b815167ffffffffffffffff8082111561030357600080fd5b818401915084601f83011261031757600080fd5b815181811115610329576103296102c3565b604051601f8201601f19908116603f01168101908382118183101715610351576103516102c3565b8160405282815287602084870101111561036a57600080fd5b61037b836020830160208801610237565b979650505050505050565b60006020828403121561039857600080fd5b815160ff8116811461023057600080fd5b6000602082840312156103bb57600080fd5b505191905056fea2646970667358221220f0dea81dca7796746af231e0722c1c3d13828dc53a451fb9e41b88849f949c8c64736f6c63430008140033",
  "linkReferences": {},
  "deployedLinkReferences": {}
}