{
  "_format": "hh-sol-artifact-1",
  "contractName": "Sandooo",
  "sourceName": "contracts/src/Sandooo.sol",
  "abi": [
    {
      "inputs": [],
      "stateMutability": "nonpayable",
      "type": "constructor"
    },
    {
      "stateMutability": "payable",
      "type": "fallback"
    },
    {
      "inputs": [],
      "name": "owner",
      "outputs": [
        {
          "internalType": "address",
          "name": "",
          "type": "address"
        }
      ],
      "stateMutability": "view",
      "type": "function"
    },
    {
      "inputs": [
        {
          "internalType": "address",
          "name": "token",
          "type": "address"
        },
        {
          "internalType": "uint256",
          "name": "amount",
          "type": "uint256"
        }
      ],
      "name": "recoverToken",
      "outputs": [],
      "stateMutability": "nonpayable",
      "type": "function"
    },
    {
      "stateMutability": "payable",
      "type": "receive"
    }
  ],
  "bytecode": "0x608060405234801561001057600080fd5b50600080546001600160a01b031916331790556102c7806100326000396000f3fe60806040526004361061002d5760003560e01c80638da5cb5b1461015c578063b29a81401461019857610034565b3661003457005b6000546001600160a01b0316331461007f5760405162461bcd60e51b81526020600482015260096024820152682727aa2fa7aba722a960b91b60448201526064015b60405180910390fd5b6040513660003560c01c43811461009557600080fd5b5060085b8181101561015a57803560f81c600182013560601c601583013560601c6029840135604985013560698601955063a9059cbb60e01b885283600489015281602489015260008060448a6000875af16100f057600080fd5b63022c0d9f60e01b885284801561010e57600181146101205761012e565b8160048a0152600060248a015261012e565b600060048a01528160248a01525b505050503060448601526080606486015260008060a4876000855af161015357600080fd5b5050610099565b005b34801561016857600080fd5b5060005461017c906001600160a01b031681565b6040516001600160a01b03909116815260200160405180910390f35b3480156101a457600080fd5b5061015a6101b3366004610259565b6000546001600160a01b031633146101f95760405162461bcd60e51b81526020600482015260096024820152682727aa2fa7aba722a960b91b6044820152606401610076565b8115801561020e576001811461024157505050565b60405163a9059cbb60e01b81523360048201528260248201526000806044836000885af161023b57600080fd5b50505050565b60008060008085335af161025457600080fd5b505050565b6000806040838503121561026c57600080fd5b82356001600160a01b038116811461028357600080fd5b94602093909301359350505056fea2646970667358221220cf141e9c2e537ef244fa94013606932504b7f976380da39a5d597ead1ac027ba64736f6c63430008140033",
  "linkReferences": {},
  "deployedLinkReferences": {}
}